:040000000BEF00F012
:100008004582FACF0DF0FBCF0EF04CED0CF033EF3C
:020018000DF0E9
:0503000000696400002B
:10030600246E2450D8A44BD01F28D8A448D00F015F
:1003160001971BC020F01CC021F01DC022F01EC09A
:1003260023F0040E05D0D890233222322132203217
:10033600E82EF9D720C025F021C026F022C027F0EC
:1003460023C028F02550256E266A276A286A25C00C
:1003560000FF070E1B14256E000E1C14266E000EE1
:100366001D14276E000E1E14286E25C020F026C010
:1003760021F027C022F028C023F0050ED8902036A1
:10038600213622362336E82EF9D720C025F021C0A3
:1003960026F022C027F023C028F025C001FF240440
:1003A600D8A44BD01F28D8A448D00F0105971BC04E
:1003B60020F01CC021F01DC022F01EC023F0040E48
:1003C60005D0D8902332223221322032E82EF9D7B6
:1003D60020C025F021C026F022C027F023C028F037
:1003E6002550256E266A276A286A25C004FF070E4F
:1003F6001B14256E000E1C14266E000E1D14276E8F
:10040600000E1E14286E25C020F026C021F027C03D
:1004160022F028C023F0050ED89020362136223649
:100426002336E82EF9D720C025F021C026F022C0B9
:1004360027F023C028F025C005FF020E2418D8A4F3
:100446004BD01F28D8A448D00F0109971BC020F015
:100456001CC021F01DC022F01EC023F0040E05D0E2
:10046600D8902332223221322032E82EF9D720C00A
:1004760025F021C026F022C027F023C028F0255001
:10048600256E266A276A286A25C008FF070E1B14F0
:10049600256E000E1C14266E000E1D14276E000E0F
:1004A6001E14286E25C020F026C021F027C022F099
:1004B60028C023F0050ED890203621362236233662
:1004C600E82EF9D720C025F021C026F022C027F05B
:1004D60023C028F025C009FF030E2418D8A44BD04A
:1004E6001F28D8A448D00F010D971BC020F01CC0B0
:1004F60021F01DC022F01EC023F0040E05D0D890B6
:100506002332223221322032E82EF9D720C025F0BC
:1005160021C026F022C027F023C028F02550256EE2
:10052600266A276A286A25C00CFF070E1B14256E4B
:10053600000E1C14266E000E1D14276E000E1E14CF
:10054600286E25C020F026C021F027C022F028C042
:1005560023F0050ED8902036213622362336E82E93
:10056600F9D720C025F021C026F022C027F023C0ED
:1005760028F025C00DFF040E2418D8A44BD01F2840
:10058600D8A448D00F0111971BC020F01CC021F041
:100596001DC022F01EC023F0040E05D0D8902332D1
:1005A600223221322032E82EF9D720C025F021C090
:1005B60026F022C027F023C028F02550256E266A93
:1005C600276A286A25C010FF070E1B14256E000E29
:1005D6001C14266E000E1D14276E000E1E14286EA7
:1005E60025C020F026C021F027C022F028C023F025
:1005F600050ED8902036213622362336E82EF9D736
:1006060020C025F021C026F022C027F023C028F004
:1006160025C011FF050E2418D8A44BD01F28D8A436
:1006260048D00F0115971BC020F01CC021F01DC03B
:1006360022F01EC023F0040E05D0D89023322232B9
:1006460021322032E82EF9D720C025F021C026F02D
:1006560022C027F023C028F02550256E266A276A77
:10066600286A25C014FF070E1B14256E000E1C14E5
:10067600266E000E1D14276E000E1E14286E25C051
:1006860020F026C021F027C022F028C023F0050E56
:10069600D8902036213622362336E82EF9D720C0C8
:1006A60025F021C026F022C027F023C028F025C05F
:1006B60015FF2450D8A475D0F70E1F18D8A471D0F2
:1006C6000F0101871B50256E266A276A286A25C0F6
:1006D60003FF000E1B14256EFF0E1C14266E000E63
:1006E6001D14276E000E1E14286E25C020F026C08D
:1006F60021F027C022F028C023F021C020F022C01C
:1007060021F023C022F0236A20C025F021C026F064
:1007160022C027F023C028F025C002FF1DA003D069
:100726000F01018102D00F0101911DA203D00F011B
:10073600018302D00F0101931DA403D00F01018B89
:1007460002D00F01019B1DA603D00F01018D02D01F
:100756000F01019D1DA803D00F01018F02D00F01CB
:10076600019F1BC020F01CC021F01DC022F01EC03E
:1007760023F0160E05D0D8902332223221322032B1
:10078600E82EF9D720C025F021C026F022C027F098
:1007960023C028F02550256E266A276A286A25C0B8
:1007A60000FF2404D8A475D0F70E1F18D8A471D062
:1007B6000F0105871B50256E266A276A286A25C001
:1007C60007FF000E1B14256EFF0E1C14266E000E6E
:1007D6001D14276E000E1E14286E25C020F026C09C
:1007E60021F027C022F028C023F021C020F022C02B
:1007F60021F023C022F0236A20C025F021C026F074
:1008060022C027F023C028F025C006FF1DA003D074
:100816000F01058102D00F0105911DA203D00F0122
:10082600058302D00F0105931DA403D00F01058B8C
:1008360002D00F01059B1DA603D00F01058D02D026
:100846000F01059D1DA803D00F01058F02D00F01D2
:10085600059F1BC020F01CC021F01DC022F01EC049
:1008660023F0160E05D0D8902332223221322032C0
:10087600E82EF9D720C025F021C026F022C027F0A7
:1008860023C028F02550256E266A276A286A25C0C7
:1008960004FF020E2418D8A475D0F70E1F18D8A48A
:1008A60071D00F0109871B50256E266A276A286AB0
:1008B60025C00BFF000E1B14256EFF0E1C14266EA2
:1008C600000E1D14276E000E1E14286E25C020F083
:1008D60026C021F027C022F028C023F021C020F036
:1008E60022C021F023C022F0236A20C025F021C0B7
:1008F60026F022C027F023C028F025C00AFF1DA03D
:1009060003D00F01098102D00F0109911DA203D066
:100916000F01098302D00F0109931DA403D00F0113
:10092600098B02D00F01099B1DA603D00F01098D6B
:1009360002D00F01099D1DA803D00F01098F02D017
:100946000F01099F1BC020F01CC021F01DC022F022
:100956001EC023F0160E05D0D89023322232213243
:100966002032E82EF9D720C025F021C026F022C07B
:1009760027F023C028F02550256E266A276A286AA4
:1009860025C008FF030E2418D8A475D0F70E1F182B
:10099600D8A471D00F010D871B50256E266A276AD1
:1009A600286A25C00FFF000E1B14256EFF0E1C14AF
:1009B600266E000E1D14276E000E1E14286E25C00E
:1009C60020F026C021F027C022F028C023F021C045
:1009D60020F022C021F023C022F0236A20C025F097
:1009E60021C026F022C027F023C028F025C00EFF24
:1009F6001DA003D00F010D8102D00F010D911DA284
:100A060003D00F010D8302D00F010D931DA403D057
:100A16000F010D8B02D00F010D9B1DA603D00F01F8
:100A26000D8D02D00F010D9D1DA803D00F010D8F56
:100A360002D00F010D9F1BC020F01CC021F01DC06D
:100A460022F01EC023F0160E05D0D8902332223293
:100A560021322032E82EF9D720C025F021C026F019
:100A660022C027F023C028F02550256E266A276A63
:100A7600286A25C00CFF040E2418D8A475D0F70EDA
:100A86001F18D8A471D00F0111871B50256E266A36
:100A9600276A286A25C013FF000E1B14256EFF0E59
:100AA6001C14266E000E1D14276E000E1E14286ED2
:100AB60025C020F026C021F027C022F028C023F050
:100AC60021C020F022C021F023C022F0236A20C0DA
:100AD60025F021C026F022C027F023C028F025C02B
:100AE60012FF1DA003D00F01118102D00F01119139
:100AF6001DA203D00F01118302D00F0111931DA473
:100B060003D00F01118B02D00F01119B1DA603D03C
:100B16000F01118D02D00F01119D1DA803D00F01E9
:100B2600118F02D00F01119F1BC020F01CC021F0B5
:100B36001DC022F01EC023F0160E05D0D890233219
:100B4600223221322032E82EF9D720C025F021C0EA
:100B560026F022C027F023C028F02550256E266AED
:100B6600276A286A25C010FF050E2418D8A412008B
:100B7600F70E1F18D8A412000F0115871B50256EFB
:100B8600266A276A286A25C017FF000E1B14256EE1
:100B9600FF0E1C14266E000E1D14276E000E1E146A
:100BA600286E25C020F026C021F027C022F028C0DC
:100BB60023F021C020F022C021F023C022F0236AB6
:100BC60020C025F021C026F022C027F023C028F03F
:100BD60025C016FF1DA003D00F01158102D00F01FD
:100BE60015911DA203D00F01158302D00F01159395
:100BF6001DA403D00F01158B02D00F01159B1DA656
:100C060003D00F01158D02D00F01159D1DA803D02D
:100C16000F01158F02D00F01159F1BC020F01CC0BD
:100C260021F01DC022F01EC023F0160E05D0D8906C
:100C36002332223221322032E82EF9D720C025F085
:100C460021C026F022C027F023C028F02550256EAB
:100C5600266A276A286A25C014FF1200000E0B6E4A
:100C660074BE0B8074BC0B820F0150AF43D101C020
:100C7600D9FF02C0DAFFDE6ADE6ADE6ADD6A20EECE
:100C860004F00150D9260250DA2256CFDFFF20EEBB
:100C960005F00150D9260250DA2257CFDFFF20EEA9
:100CA60006F00150D9260250DA2258CFDFFF20EE97
:100CB60007F00150D9260250DA2259CFDFFF20EE85
:100CC60008F00150D9260250DA225ACFDFFF20EE73
:100CD60009F00150D9260250DA225BCFDFFF20EE61
:100CE6000AF00150D9260250DA225CCFDFFF20EE4F
:100CF6000BF00150D9260250DA225DCFDFFF20EE3D
:100D06000EF00150D9260250DA220F0155AD02D05D
:100D1600010E01D0000EDF6E20EE0DF00150D92637
:100D26000250DA220F0155510F0BDF6E20EE0CF048
:100D36000150D9260250DA220F0152A702D0010E25
:100D460001D0000EDF6E0F0152B744D051CF03F031
:100D5600046A056A066A030ED89003360436053619
:100D66000636E82EF9D701C0D9FF02C0DAFF03C064
:100D7600DEFF04C0DEFF05C0DEFF06C0DEFF0F019A
:100D86005239E842070B070B0C6E01C0D9FF02C0AF
:100D9600DAFFDECF03F0DECF04F0DECF05F0DECFE4
:100DA60006F00C500324076E000E0420086E000E99
:100DB6000520096E000E06200A6E01C0D9FF02C08A
:100DC600DAFF07C0DEFF08C0DEFF09C0DEFF0AC08B
:100DD600DEFF8DD054CF03F0046A056A066A01C0AF
:100DE600D9FF02C0DAFF03C0DEFF04C0DEFF05C084
:100DF600DEFF06C0DEFF53CF03F0046A056A066A0B
:100E060005C006F004C005F003C004F0036A01C083
:100E1600D9FF02C0DAFF0350DE260450DE22055059
:100E2600DE220650DE220F0152A10CD001C0D9FFEE
:100E360002C0DAFF000EDE12000EDE12010EDE1216
:100E4600000EDE120F0152A30CD001C0D9FF02C062
:100E5600DAFF000EDE12000EDE12020EDE12000EA9
:100E6600DE120F0152AB0CD001C0D9FF02C0DAFF6F
:100E7600000EDE12000EDE12040EDE12000EDE1270
:100E86000F0152AD0CD001C0D9FF02C0DAFF000E2F
:100E9600DE12000EDE12080EDE12000EDE120F014A
:100EA60052AF0CD001C0D9FF02C0DAFF000EDE122D
:100EB600000EDE12100EDE12000EDE1251CF03F00F
:100EC600046A056A066A150ED89003360436053696
:100ED6000636E82EF9D701C0D9FF02C0DAFF035063
:100EE600DE120450DE120550DE120650DE120F012D
:100EF600509F120060AE120001C0D9FF02C0DAFF97
:100F0600DE6ADE6ADE6ADD6A20EE04F00150D9266A
:100F16000250DA2266CFDFFF20EE05F00150D92617
:100F26000250DA2267CFDFFF20EE06F00150D92605
:100F36000250DA2268CFDFFF20EE07F00150D926F3
:100F46000250DA2269CFDFFF20EE08F00150D926E1
:100F56000250DA226ACFDFFF20EE09F00150D926CF
:100F66000250DA226BCFDFFF20EE0AF00150D926BD
:100F76000250DA226CCFDFFF20EE0BF00150D926AB
:100F86000250DA226DCFDFFF20EE0EF00150D92697
:100F96000250DA2265AC02D0010E01D0000EDF6EDF
:100FA60020EE0DF00150D9260250DA2265500F0BC3
:100FB600DF6E20EE0CF00150D9260250DA2262A62E
:100FC60002D0010E01D0000EDF6E62B643D061CFB3
:100FD60003F0046A056A066A030ED89003360436DF
:100FE60005360636E82EF9D701C0D9FF02C0DAFF6A
:100FF60003C0DEFF04C0DEFF05C0DEFF06C0DEFF65
:101006006238E842070B070B0C6E01C0D9FF02C01D
:10101600DAFFDECF03F0DECF04F0DECF05F0DECF61
:1010260006F00C500324076E000E0420086E000E16
:101036000520096E000E06200A6E01C0D9FF02C007
:10104600DAFF07C0DEFF08C0DEFF09C0DEFF0AC008
:10105600DEFF88D064CF03F0046A056A066A01C021
:10106600D9FF02C0DAFF03C0DEFF04C0DEFF05C001
:10107600DEFF06C0DEFF63CF03F0046A056A066A78
:1010860005C006F004C005F003C004F0036A01C001
:10109600D9FF02C0DAFF0350DE260450DE220550D7
:1010A600DE220650DE2262A00CD001C0D9FF02C0AB
:1010B600DAFF000EDE12000EDE12010EDE12000E48
:1010C600DE1262A20CD001C0D9FF02C0DAFF000E08
:1010D600DE12000EDE12020EDE12000EDE1262AA12
:1010E6000CD001C0D9FF02C0DAFF000EDE12000EDE
:1010F600DE12040EDE12000EDE1262AC0CD001C04F
:10110600D9FF02C0DAFF000EDE12000EDE12080E54
:10111600DE12000EDE1262AE0CD001C0D9FF02C094
:10112600DAFF000EDE12000EDE12100EDE12000EC8
:10113600DE1261CF03F0046A056A066A150ED890BE
:101146000336043605360636E82EF9D701C0D9FF30
:1011560002C0DAFF0350DE120450DE120550DE1222
:101166000650DE12609E1200246E2404D8A449D0D4
:101176001F28D8A446D01BC020F01CC021F01DC0DB
:1011860022F01EC023F0040E05D0D890233222325E
:1011960021322032E82EF9D720C025F021C026F0D2
:1011A60022C027F023C028F02550256E266A276A1C
:1011B600286A25C018FF070E1B14256E000E1C1486
:1011C600266E000E1D14276E000E1E14286E25C0F6
:1011D60020F026C021F027C022F028C023F0050EFB
:1011E600D8902036213622362336E82EF9D720C06D
:1011F60025F021C026F022C027F023C028F025C004
:1012060019FF020E2418D8A449D01F28D8A446D006
:101216001BC020F01CC021F01DC022F01EC023F010
:10122600040E05D0D8902332223221322032E82E05
:10123600F9D720C025F021C026F022C027F023C010
:1012460028F02550256E266A276A286A25C01CFFC5
:10125600070E1B14256E000E1C14266E000E1D14A0
:10126600276E000E1E14286E25C020F026C021F021
:1012760027C022F028C023F0050ED890203621364C
:1012860022362336E82EF9D720C025F021C026F0D5
:1012960022C027F023C028F025C01DFF2404D8A4AF
:1012A60073D0F70E1F18D8A46FD01B50256E266A70
:1012B600276A286A25C01BFF000E1B14256EFF0E29
:1012C6001C14266E000E1D14276E000E1E14286EAA
:1012D60025C020F026C021F027C022F028C023F028
:1012E60021C020F022C021F023C022F0236A20C0B2
:1012F60025F021C026F022C027F023C028F025C003
:101306001AFF1DA003D00F01198102D00F011991F8
:101316001DA203D00F01198302D00F0119931DA43A
:1013260003D00F01198B02D00F01199B1DA603D004
:101336000F01198D02D00F01199D1DA803D00F01B1
:10134600198F02D00F01199F1BC020F01CC021F07D
:101356001DC022F01EC023F0160E05D0D8902332F1
:10136600223221322032E82EF9D720C025F021C0C2
:1013760026F022C027F023C028F02550256E266AC5
:10138600276A286A25C018FF020E2418D8A412005E
:10139600F70E1F18D8A412001B50256E266A276A5E
:1013A600286A25C01FFF000E1B14256EFF0E1C1495
:1013B600266E000E1D14276E000E1E14286E25C004
:1013C60020F026C021F027C022F028C023F021C03B
:1013D60020F022C021F023C022F0236A20C025F08D
:1013E60021C026F022C027F023C028F025C01EFF0A
:1013F6001DA003D00F011D8102D00F011D911DA25A
:1014060003D00F011D8302D00F011D931DA403D02D
:101416000F011D8B02D00F011D9B1DA603D00F01CE
:101426001D8D02D00F011D9D1DA803D00F011D8F1C
:1014360002D00F011D9F1BC020F01CC021F01DC053
:1014460022F01EC023F0160E05D0D8902332223289
:1014560021322032E82EF9D720C025F021C026F00F
:1014660022C027F023C028F02550256E266A276A59
:10147600286A25C01CFF12000001696F800EBEECB1
:101486000DF0000E706E000E716E000E726E000191
:101496006241E842C00B0001626F000162517012A6
:1014A6000001635170120001695171120001603927
:1014B600E842F80B0001606F0001605171120001F3
:1014C60064A5718C000164B1718E000161517212C4
:1014D600000164B3728C00016451600B606E000100
:1014E6006451100BFF0AD8B4608460CF50FF000E21
:1014F6001B6E000E1C6E000E1D6E000E1E6EF70E8D
:101506001F6E010EB7EC08F0000E1B6E000E1C6E6F
:10151600000E1D6E000E1E6EF70E1F6E020EB7EC4D
:1015260008F00FD0F70E00016A6F07D000016A6954
:1015360000016B6928D000016A69F70E00016B6F24
:1015460022D09F0E0001656FFF0E0001666F00013D
:101556006451600B0001676F686B00016551000103
:101566006713000166510001681300016851000A03
:10157600D8A4E1D700016751BF0AD8B4D7D7600A0B
:10158600D8B4D0D7D8D7000E1B6E000E1C6E000E36
:101596001D6E000E1E6E6AC01FF0000E83EC01F079
:1015A600000E1B6E000E1C6E000E1D6E000E1E6ED3
:1015B6006AC01FF0010E83EC01F0000E1B6E000ED8
:1015C6001C6E000E1D6E000E1E6E6BC01FF0020E0E
:1015D60083EC01F0000E1B6E000E1C6E000E1D6EDD
:1015E600000E1E6E6BC01FF0030E83EC01F0000EA2
:1015F6001B6E000E1C6E000E1D6E000E1E6E6BC066
:101606001FF0040E83EC01F0000E1B6E000E1C6E24
:10161600000E1D6E000E1E6E6BC01FF0050E83ECD5
:1016260001F0000EBEEC0DF01200296E2950C7EC39
:101636000DF08C948C968C92000E226E640E216EA8
:1016460002EC0DF0000E236E010E246E010E256EC7
:10165600000E1BEC0DF0000E226E640E216E02ECE5
:101666000DF0000E236E010E246E010E256E000E87
:101676001BEC0DF0000E226E0A0E216E02EC0DF030
:10168600000E236E010E246E010E256E000E1BEC5D
:101696000DF0000E236E010E246E000E256E000E58
:1016A6001BEC0DF0000E236E010E246E000E256E4F
:1016B600000E1BEC0DF0000E236E000E246E000EC5
:1016C600256E010E1BEC0DF0000E236E000E246E2F
:1016D600000E256E000E1BEC0DF0000E236E000EA4
:1016E600246E000E256E010E1BEC0DF0000E236E0F
:1016F600000E246E000E256E000E1BEC0DF0000E83
:10170600236E000E246E010E256E000E1BEC0DF0EE
:10171600000E236E000E246E000E256E000E1BECCE
:101726000DF0010E236E010E246E000E256E000EC6
:101736001BEC0DF072EC0DF0000E276E000E5EEC49
:101746000DF01200276E4CD0000E236E000E246E94
:10175600000E256E010E1BEC0DF0000E236E000E22
:10176600246E000E256E000E1BEC0DF01200010E0D
:10177600236E000E246E000E256E010E1BEC0DF07E
:10178600000E236E000E246E000E256E000E1BEC5E
:101796000DF01200000E236E000E246E010E256E53
:1017A600010E1BEC0DF0010E236E000E246E000ED2
:1017B600256E000E1BEC0DF01200010E236E000EBE
:1017C600246E010E256E010E1BEC0DF0010E236E2C
:1017D600000E246E000E256E000E1BEC0DF012009E
:1017E6002750010AD8B4B0D7030AD8B4C0D7010A23
:1017F600D8B4D0D7070AD8A41200DFD70001646F87
:101806008C8400016445010B0001606F0001644592
:10181600E846030B010B0001616F00016439E842E1
:10182600070B010B0001626F000164390F0B010BFE
:101836000001636F61C023F062C024F063C025F02D
:10184600000160511BEC0DF000016439E8461F0BE6
:10185600010B0001606F00016441E8423F0B010B80
:101866000001616F0001D8906431010B0001626FC5
:1018760000016451010B0001636F61C023F062C077
:1018860024F063C025F0000160511BEC0DF08C9430
:1018960012000600E9CF0FF0EACF10F0E1CF11F009
:1018A600E2CF12F0D9CF13F0DACF14F0F3CF15F060
:1018B600F4CF16F0F6CF17F0F7CF18F0F8CF19F0EF
:1018C600F5CF1AF0B3EC0DF00009D8B408D0350EF8
:1018D600016E000E026E31EC06F0A490A4921AC0BE
:1018E600F5FF19C0F8FF18C0F7FF17C0F6FF16C0BE
:1018F600F4FF15C0F3FF14C0DAFF13C0D9FF12C0FE
:10190600E2FF11C0E1FF10C0EAFF0FC0E9FF0EC001
:10191600FBFF0DC0FAFF45921100BDEC0CF0100E56
:1019260018EC0BF035C034F039C033F0000E2A6ED7
:10193600010EA7EC0DF0010E276E030E286E49EC82
:101946000DF0030E2A6E010EA7EC0DF0345001ECDB
:101956000CF0000E2A6E020EA7EC0DF0335001ECCF
:101966000CF0030E226EE80E216E02EC0DF072EC06
:101976000DF0D8D7060E0001606F050E0001616FED
:10198600010E0001626F030E0001636F9D0E0001E0
:10199600646F040E3FEC0AF0000E896E9268000E2A
:1019A6008A6E9368000E8B6E9468000E8C6E000E25
:1019B600956E000E8D6E9668A492A490A582A58061
:1019C600A382A3801200286E000E296E13D0000E8B
:1019D600236E000E246E010E256E000E1BEC0DF01C
:1019E60028C023F0000E246E000E256E000E1BECA0
:1019F6000DF0292A2750295CD8B01200E8D744C038
:101A06001BF01C6A21C01DF022C01EF085EC0DF0F3
:101A16001BC031F01CC032F006D0500EE82EFED7A7
:101A26003106D8A0320631503210D8B41200F5D79C
:101A3600266E25B002D08C9801D08C8824B002D0B6
:101A46008C9A01D08C8A23B002D08C9C01D08C8CCD
:101A560026B002D08C9E01D08C8E98EC0DF0120030
:101A660000EE2BF0190EEE6AE806FDE1960EF66E14
:101A76001B0EF76E000EF86E0900F5CF44F0459088
:101A86004592000EF86E000190EF0CF00AD027C0C8
:101A9600F6FF28C0F7FF0800F55001EC0CF0274AC6
:101AA600282A27C0F6FF28C0F7FF0800F5500009CE
:101AB600D8B41200ECD7286E000E236E000E246EEA
:101AC600000E256E000E1BEC0DF0010E236E28C0D5
:101AD60024F027C025F0010E1BEC0DF01200000EBD
:101AE600236E000E246E000E256E000E1BEC0DF00C
:101AF600000E236E000E246E010E256E000E1BECEA
:101B06000DF012001B501D02F3CF1FF0F4CF20F092
:101B16001B501E02F35020261C501D02F350202697
:101B26001FC01BF020C01CF012008C86000E226E17
:101B3600010E216E02EC0DF08C96000E226E010E47
:101B4600216E02EC0DF012000001606F2A50A5EC28
:101B56000BF000016005276E010EE6EC0CF012009A
:101B6600010E016E60BE05D00F0150BF02D0000EFF
:101B7600016E015012001B6E1BC06FFF6E50E00B12
:101B86001B18D8B41200FAD71B6E1BC044F0120003
:011B96000846
:020000040020DA
:08000000FFFFFFFFFFFFFFFF00
:020000040030CA
:0E000000FF021F1EFF8285FF0FC00FE00F40A2
:00000001FF
