:040000000BEF00F012
:100008004582FACF0DF0FBCF0EF026ED0AF0C4EFD3
:100018000AF0246E2450D8A44BD01F28D8A448D066
:100028000F0101971BC020F01CC021F01DC022F059
:100038001EC023F0040E05D0D8902332223221327C
:100048002032E82EF9D720C025F021C026F022C0A2
:1000580027F023C028F02550256E266A276A286ACB
:1000680025C000FF070E1B14256E000E1C14266EFB
:10007800000E1D14276E000E1E14286E25C020F0D9
:1000880026C021F027C022F028C023F0050ED89002
:100098002036213622362336E82EF9D720C025F01F
:1000A80021C026F022C027F023C028F025C001FF78
:1000B8002404D8A44BD01F28D8A448D00F010597F2
:1000C8001BC020F01CC021F01DC022F01EC023F070
:1000D800040E05D0D8902332223221322032E82E65
:1000E800F9D720C025F021C026F022C027F023C070
:1000F80028F02550256E266A276A286A25C004FF3D
:10010800070E1B14256E000E1C14266E000E1D14FF
:10011800276E000E1E14286E25C020F026C021F080
:1001280027C022F028C023F0050ED89020362136AB
:1001380022362336E82EF9D720C025F021C026F034
:1001480022C027F023C028F025C005FF020E24187E
:10015800D8A44BD01F28D8A448D00F0109971BC09A
:1001680020F01CC021F01DC022F01EC023F0040E98
:1001780005D0D8902332223221322032E82EF9D706
:1001880020C025F021C026F022C027F023C028F087
:100198002550256E266A276A286A25C008FF070E9B
:1001A8001B14256E000E1C14266E000E1D14276EDF
:1001B800000E1E14286E25C020F026C021F027C08E
:1001C80022F028C023F0050ED8902036213622369A
:1001D8002336E82EF9D720C025F021C026F022C00A
:1001E80027F023C028F025C009FF030E2418D8A43F
:1001F8004BD01F28D8A448D00F010D971BC020F062
:100208001CC021F01DC022F01EC023F0040E05D032
:10021800D8902332223221322032E82EF9D720C05A
:1002280025F021C026F022C027F023C028F0255051
:10023800256E266A276A286A25C00CFF070E1B143C
:10024800256E000E1C14266E000E1D14276E000E5F
:100258001E14286E25C020F026C021F027C022F0E9
:1002680028C023F0050ED8902036213622362336B2
:10027800E82EF9D720C025F021C026F022C027F0AB
:1002880023C028F025C00DFF040E2418D8A44BD095
:100298001F28D8A448D00F0111971BC020F01CC0FC
:1002A80021F01DC022F01EC023F0040E05D0D89006
:1002B8002332223221322032E82EF9D720C025F00D
:1002C80021C026F022C027F023C028F02550256E33
:1002D800266A276A286A25C010FF070E1B14256E98
:1002E800000E1C14266E000E1D14276E000E1E1420
:1002F800286E25C020F026C021F027C022F028C093
:1003080023F0050ED8902036213622362336E82EE3
:10031800F9D720C025F021C026F022C027F023C03D
:1003280028F025C011FF050E2418D8A44BD01F288B
:10033800D8A448D00F0115971BC020F01CC021F08D
:100348001DC022F01EC023F0040E05D0D890233221
:10035800223221322032E82EF9D720C025F021C0E0
:1003680026F022C027F023C028F02550256E266AE3
:10037800276A286A25C014FF070E1B14256E000E75
:100388001C14266E000E1D14276E000E1E14286EF7
:1003980025C020F026C021F027C022F028C023F075
:1003A800050ED8902036213622362336E82EF9D786
:1003B80020C025F021C026F022C027F023C028F055
:1003C80025C015FF2450D8A475D0F70E1F18D8A43F
:1003D80071D00F0101871B50256E266A276A286A8B
:1003E80025C003FF000E1B14256EFF0E1C14266E7D
:1003F800000E1D14276E000E1E14286E25C020F056
:1004080026C021F027C022F028C023F021C020F008
:1004180022C021F023C022F0236A20C025F021C089
:1004280026F022C027F023C028F025C002FF1DA017
:1004380003D00F01018102D00F0101911DA203D049
:100448000F01018302D00F0101931DA403D00F01F6
:10045800018B02D00F01019B1DA603D00F01018D56
:1004680002D00F01019D1DA803D00F01018F02D0FA
:100478000F01019F1BC020F01CC021F01DC022F0FD
:100488001EC023F0160E05D0D89023322232213216
:100498002032E82EF9D720C025F021C026F022C04E
:1004A80027F023C028F02550256E266A276A286A77
:1004B80025C000FF2404D8A475D0F70E1F18D8A4AF
:1004C80071D00F0105871B50256E266A276A286A96
:1004D80025C007FF000E1B14256EFF0E1C14266E88
:1004E800000E1D14276E000E1E14286E25C020F065
:1004F80026C021F027C022F028C023F021C020F018
:1005080022C021F023C022F0236A20C025F021C098
:1005180026F022C027F023C028F025C006FF1DA022
:1005280003D00F01058102D00F0105911DA203D050
:100538000F01058302D00F0105931DA403D00F01FD
:10054800058B02D00F01059B1DA603D00F01058D59
:1005580002D00F01059D1DA803D00F01058F02D001
:100568000F01059F1BC020F01CC021F01DC022F008
:100578001EC023F0160E05D0D89023322232213225
:100588002032E82EF9D720C025F021C026F022C05D
:1005980027F023C028F02550256E266A276A286A86
:1005A80025C004FF020E2418D8A475D0F70E1F1812
:1005B800D8A471D00F0109871B50256E266A276AB7
:1005C800286A25C00BFF000E1B14256EFF0E1C1495
:1005D800266E000E1D14276E000E1E14286E25C0F0
:1005E80020F026C021F027C022F028C023F021C027
:1005F80020F022C021F023C022F0236A20C025F079
:1006080021C026F022C027F023C028F025C00AFF09
:100618001DA003D00F01098102D00F0109911DA26D
:1006280003D00F01098302D00F0109931DA403D041
:100638000F01098B02D00F01099B1DA603D00F01E2
:10064800098D02D00F01099D1DA803D00F01098F44
:1006580002D00F01099F1BC020F01CC021F01DC053
:1006680022F01EC023F0160E05D0D8902332223275
:1006780021322032E82EF9D720C025F021C026F0FB
:1006880022C027F023C028F02550256E266A276A45
:10069800286A25C008FF030E2418D8A475D0F70EC1
:1006A8001F18D8A471D00F010D871B50256E266A1C
:1006B800276A286A25C00FFF000E1B14256EFF0E3F
:1006C8001C14266E000E1D14276E000E1E14286EB4
:1006D80025C020F026C021F027C022F028C023F032
:1006E80021C020F022C021F023C022F0236A20C0BC
:1006F80025F021C026F022C027F023C028F025C00D
:100708000EFF1DA003D00F010D8102D00F010D9126
:100718001DA203D00F010D8302D00F010D931DA45C
:1007280003D00F010D8B02D00F010D9B1DA603D026
:100738000F010D8D02D00F010D9D1DA803D00F01D3
:100748000D8F02D00F010D9F1BC020F01CC021F09F
:100758001DC022F01EC023F0160E05D0D8902332FB
:10076800223221322032E82EF9D720C025F021C0CC
:1007780026F022C027F023C028F02550256E266ACF
:10078800276A286A25C00CFF040E2418D8A475D03F
:10079800F70E1F18D8A471D00F0111871B50256EB2
:1007A800266A276A286A25C013FF000E1B14256EC7
:1007B800FF0E1C14266E000E1D14276E000E1E144C
:1007C800286E25C020F026C021F027C022F028C0BE
:1007D80023F021C020F022C021F023C022F0236A98
:1007E80020C025F021C026F022C027F023C028F021
:1007F80025C012FF1DA003D00F01118102D00F01E7
:1008080011911DA203D00F01118302D00F01119382
:100818001DA403D00F01118B02D00F01119B1DA63F
:1008280003D00F01118D02D00F01119D1DA803D017
:100838000F01118F02D00F01119F1BC020F01CC0A7
:1008480021F01DC022F01EC023F0160E05D0D8904E
:100858002332223221322032E82EF9D720C025F067
:1008680021C026F022C027F023C028F02550256E8D
:10087800266A276A286A25C010FF050E2418D8A4FE
:100888001200F70E1F18D8A412000F0115871B506D
:10089800256E266A276A286A25C017FF000E1B14D2
:1008A800256EFF0E1C14266E000E1D14276E000EFA
:1008B8001E14286E25C020F026C021F027C022F083
:1008C80028C023F021C020F022C021F023C022F04C
:1008D800236A20C025F021C026F022C027F023C0BB
:1008E80028F025C016FF1DA003D00F01158102D0E6
:1008F8000F0115911DA203D00F01158302D00F011E
:1009080015931DA403D00F01158B02D00F01159B61
:100918001DA603D00F01158D02D00F01159D1DA82E
:1009280003D00F01158F02D00F01159F1BC020F0B7
:100938001CC021F01DC022F01EC023F0160E05D0E9
:10094800D8902332223221322032E82EF9D720C023
:1009580025F021C026F022C027F023C028F025501A
:10096800256E266A276A286A25C014FF1200000E21
:100978000B6E74BE0B8074BC0B820F0150AF43D159
:1009880001C0D9FF02C0DAFFDE6ADE6ADE6ADD6A0C
:1009980020EE04F00150D9260250DA2256CFDFFFAC
:1009A80020EE05F00150D9260250DA2257CFDFFF9A
:1009B80020EE06F00150D9260250DA2258CFDFFF88
:1009C80020EE07F00150D9260250DA2259CFDFFF76
:1009D80020EE08F00150D9260250DA225ACFDFFF64
:1009E80020EE09F00150D9260250DA225BCFDFFF52
:1009F80020EE0AF00150D9260250DA225CCFDFFF40
:100A080020EE0BF00150D9260250DA225DCFDFFF2D
:100A180020EE0EF00150D9260250DA220F0155AD12
:100A280002D0010E01D0000EDF6E20EE0DF0015055
:100A3800D9260250DA220F0155510F0BDF6E20EE36
:100A48000CF00150D9260250DA220F0152A702D029
:100A5800010E01D0000EDF6E0F0152B744D051CF06
:100A680003F0046A056A066A030ED8900336043652
:100A780005360636E82EF9D701C0D9FF02C0DAFFDD
:100A880003C0DEFF04C0DEFF05C0DEFF06C0DEFFD8
:100A98000F015239E842070B070B0C6E01C0D9FF52
:100AA80002C0DAFFDECF03F0DECF04F0DECF05F0C0
:100AB800DECF06F00C500324076E000E0420086EEB
:100AC800000E0520096E000E06200A6E01C0D9FF2F
:100AD80002C0DAFF07C0DEFF08C0DEFF09C0DEFF84
:100AE8000AC0DEFF8DD054CF03F0046A056A066A97
:100AF80001C0D9FF02C0DAFF03C0DEFF04C0DEFF79
:100B080005C0DEFF06C0DEFF53CF03F0046A056AA6
:100B1800066A05C006F004C005F003C004F0036AC5
:100B280001C0D9FF02C0DAFF0350DE260450DE22DE
:100B38000550DE220650DE220F0152A10CD001C062
:100B4800D9FF02C0DAFF000EDE12000EDE12010E1F
:100B5800DE12000EDE120F0152A30CD001C0D9FF25
:100B680002C0DAFF000EDE12000EDE12020EDE12E6
:100B7800000EDE120F0152AB0CD001C0D9FF02C02B
:100B8800DAFF000EDE12000EDE12040EDE12000E78
:100B9800DE120F0152AD0CD001C0D9FF02C0DAFF3E
:100BA800000EDE12000EDE12080EDE12000EDE123D
:100BB8000F0152AF0CD001C0D9FF02C0DAFF000EFE
:100BC800DE12000EDE12100EDE12000EDE1251CF03
:100BD80003F0046A056A066A150ED89003360436CF
:100BE80005360636E82EF9D701C0D9FF02C0DAFF6C
:100BF8000350DE120450DE120550DE120650DE12DB
:100C08000F01509F120060AE120001C0D9FF02C050
:100C1800DAFFDE6ADE6ADE6ADD6A20EE04F0015081
:100C2800D9260250DA2266CFDFFF20EE05F0015008
:100C3800D9260250DA2267CFDFFF20EE06F00150F6
:100C4800D9260250DA2268CFDFFF20EE07F00150E4
:100C5800D9260250DA2269CFDFFF20EE08F00150D2
:100C6800D9260250DA226ACFDFFF20EE09F00150C0
:100C7800D9260250DA226BCFDFFF20EE0AF00150AE
:100C8800D9260250DA226CCFDFFF20EE0BF001509C
:100C9800D9260250DA226DCFDFFF20EE0EF0015088
:100CA800D9260250DA2265AC02D0010E01D0000E1E
:100CB800DF6E20EE0DF00150D9260250DA22655081
:100CC8000F0BDF6E20EE0CF00150D9260250DA220D
:100CD80062A602D0010E01D0000EDF6E62B643D0CC
:100CE80061CF03F0046A056A066A030ED8900336DA
:100CF800043605360636E82EF9D701C0D9FF02C0FA
:100D0800DAFF03C0DEFF04C0DEFF05C0DEFF06C059
:100D1800DEFF6238E842070B070B0C6E01C0D9FFF3
:100D280002C0DAFFDECF03F0DECF04F0DECF05F03D
:100D3800DECF06F00C500324076E000E0420086E68
:100D4800000E0520096E000E06200A6E01C0D9FFAC
:100D580002C0DAFF07C0DEFF08C0DEFF09C0DEFF01
:100D68000AC0DEFF88D064CF03F0046A056A066A09
:100D780001C0D9FF02C0DAFF03C0DEFF04C0DEFFF6
:100D880005C0DEFF06C0DEFF63CF03F0046A056A14
:100D9800066A05C006F004C005F003C004F0036A43
:100DA80001C0D9FF02C0DAFF0350DE260450DE225C
:100DB8000550DE220650DE2262A00CD001C0D9FF09
:100DC80002C0DAFF000EDE12000EDE12010EDE1285
:100DD800000EDE1262A20CD001C0D9FF02C0DAFFF9
:100DE800000EDE12000EDE12020EDE12000EDE1201
:100DF80062AA0CD001C0D9FF02C0DAFF000EDE12D1
:100E0800000EDE12040EDE12000EDE1262AC0CD0F2
:100E180001C0D9FF02C0DAFF000EDE12000EDE129A
:100E2800080EDE12000EDE1262AE0CD001C0D9FF31
:100E380002C0DAFF000EDE12000EDE12100EDE1205
:100E4800000EDE1261CF03F0046A056A066A150E09
:100E5800D8900336043605360636E82EF9D701C091
:100E6800D9FF02C0DAFF0350DE120450DE1205502B
:100E7800DE120650DE12609E1200246E2404D8A4EE
:100E880049D01F28D8A446D01BC020F01CC021F090
:100E98001DC022F01EC023F0040E05D0D8902332C6
:100EA800223221322032E82EF9D720C025F021C085
:100EB80026F022C027F023C028F02550256E266A88
:100EC800276A286A25C018FF070E1B14256E000E16
:100ED8001C14266E000E1D14276E000E1E14286E9C
:100EE80025C020F026C021F027C022F028C023F01A
:100EF800050ED8902036213622362336E82EF9D72B
:100F080020C025F021C026F022C027F023C028F0F9
:100F180025C019FF020E2418D8A449D01F28D8A428
:100F280046D01BC020F01CC021F01DC022F01EC0FE
:100F380023F0040E05D0D8902332223221322032F9
:100F4800E82EF9D720C025F021C026F022C027F0CE
:100F580023C028F02550256E266A276A286A25C0EE
:100F68001CFF070E1B14256E000E1C14266E000EA7
:100F78001D14276E000E1E14286E25C020F026C0F2
:100F880021F027C022F028C023F0050ED890203683
:100F9800213622362336E82EF9D720C025F021C085
:100FA80026F022C027F023C028F025C01DFF240406
:100FB800D8A473D0F70E1F18D8A46FD01B50256E75
:100FC800266A276A286A25C01BFF000E1B14256E97
:100FD800FF0E1C14266E000E1D14276E000E1E1424
:100FE800286E25C020F026C021F027C022F028C096
:100FF80023F021C020F022C021F023C022F0236A70
:1010080020C025F021C026F022C027F023C028F0F8
:1010180025C01AFF1DA003D00F01198102D00F01AE
:1010280019911DA203D00F01198302D00F01199342
:101038001DA403D00F01198B02D00F01199B1DA607
:1010480003D00F01198D02D00F01199D1DA803D0DF
:101058000F01198F02D00F01199F1BC020F01CC06F
:1010680021F01DC022F01EC023F0160E05D0D89026
:101078002332223221322032E82EF9D720C025F03F
:1010880021C026F022C027F023C028F02550256E65
:10109800266A276A286A25C018FF020E2418D8A4D1
:1010A8001200F70E1F18D8A412001B50256E266ACE
:1010B800276A286A25C01FFF000E1B14256EFF0E25
:1010C8001C14266E000E1D14276E000E1E14286EAA
:1010D80025C020F026C021F027C022F028C023F028
:1010E80021C020F022C021F023C022F0236A20C0B2
:1010F80025F021C026F022C027F023C028F025C003
:101108001EFF1DA003D00F011D8102D00F011D91EC
:101118001DA203D00F011D8302D00F011D931DA432
:1011280003D00F011D8B02D00F011D9B1DA603D0FC
:101138000F011D8D02D00F011D9D1DA803D00F01A9
:101148001D8F02D00F011D9F1BC020F01CC021F075
:101158001DC022F01EC023F0160E05D0D8902332F1
:10116800223221322032E82EF9D720C025F021C0C2
:1011780026F022C027F023C028F02550256E266AC5
:10118800276A286A25C01CFF12000001656F800EBF
:101198002EEC0BF0000E706E000E716E000E726E6B
:1011A80000016241E842C00B0001626F0001625118
:1011B8007012000163517012000165517112000133
:1011C8006039E842F80B0001606F0001605171124C
:1011D800000164A5718C000164B1718E0001615138
:1011E8007212000164B3728C00016451600B606E6E
:1011F80000016451100BFF0AD8B4608460CF50FF1F
:10120800000E1B6E000E1C6E000E1D6E000E1E6E74
:10121800F70E1F6E010E41EC07F0000E1B6E000E5C
:101228001C6E000E1D6E000E1E6EF70E1F6E020E57
:1012380041EC07F00FD0F70E0001666F07D00001F0
:101248006669000167691FD000016669F70E000131
:10125800676F19D09F0E296EFF0E2A6E0001645128
:10126800600B2B6E2C6A29502B122A502C122C50F2
:10127800000AD8A4E9D72B50BF0AD8B4E0D7600A2F
:10128800D8B4D9D7E1D7000E1B6E000E1C6E000E25
:101298001D6E000E1E6E66C01FF0000E0DEC00F0F5
:1012A800000E1B6E000E1C6E000E1D6E000E1E6ED4
:1012B80066C01FF0010E0DEC00F0000E1B6E000E54
:1012C8001C6E000E1D6E000E1E6E67C01FF0020E13
:1012D8000DEC00F0000E1B6E000E1C6E000E1D6E55
:1012E800000E1E6E67C01FF0030E0DEC00F0000E1E
:1012F8001B6E000E1C6E000E1D6E000E1E6E67C06B
:101308001FF0040E0DEC00F0000E1B6E000E1C6E9C
:10131800000E1D6E000E1E6E67C01FF0050E0DEC50
:1013280000F0000E2EEC0BF01200296E29503DEC57
:101338000BF08C948C968C92000E226E640E216EAB
:1013480093EC0AF0000E236E010E246E010E256E3A
:10135800000EACEC0AF0000E226E640E216E93ECC7
:101368000AF0000E236E010E246E010E256E000E8B
:10137800ACEC0AF0000E226E0A0E216E93EC0AF015
:10138800000E236E010E246E010E256E000EACECCD
:101398000AF0000E236E010E246E000E256E000E5C
:1013A800ACEC0AF0000E236E010E246E000E256EC2
:1013B800000EACEC0AF0000E236E000E246E000E38
:1013C800256E010EACEC0AF0000E236E000E246EA2
:1013D800000E256E000EACEC0AF0000E236E000E17
:1013E800246E000E256E010EACEC0AF0000E236E82
:1013F800000E246E000E256E000EACEC0AF0000EF6
:10140800236E000E246E010E256E000EACEC0AF061
:10141800000E236E000E246E000E256E000EACEC3E
:101428000AF0010E236E010E246E000E256E000ECA
:10143800ACEC0AF0EEEC0AF0000E276E000EDAECC7
:101448000AF012000600E9CF0FF0EACF10F0E1CF62
:1014580011F0E2CF12F0D9CF13F0DACF14F0F3CFB6
:1014680015F0F4CF16F0F6CF17F0F7CF18F0F8CF45
:1014780019F0F5CF1AF023EC0BF00009D8B408D016
:10148800350E016E000E026EBBEC04F0A490A4921F
:101498001AC0F5FF19C0F8FF18C0F7FF17C0F6FF0C
:1014A80016C0F4FF15C0F3FF14C0DAFF13C0D9FF4C
:1014B80012C0E2FF11C0E1FF10C0EAFF0FC0E9FF50
:1014C8000EC0FBFF0DC0FAFF45921100060E000189
:1014D800606F050E0001616F010E0001626F030E5F
:1014E8000001636F9D0E0001646F040EC9EC08F0E3
:1014F800000E896E9268000E8A6E9368000E8B6EDD
:101508009468000E8C6E000E956E000E8D6E9668B7
:10151800A492A490A582A580A382A380120044C0AF
:101528001BF01C6A21C01DF022C01EF001EC0BF05C
:101538001BC033F01CC034F006D0500EE82EFED786
:101548003306D8A0340633503410D8B41200F5D777
:10155800266E25B002D08C9801D08C8824B002D099
:101568008C9A01D08C8A23B002D08C9C01D08C8CB0
:1015780026B002D08C9E01D08C8E14EC0BF0120099
:1015880000EE2DF0170EEE6AE806FDE1820EF66E0B
:10159800160EF76E000EF86E0900F5CF44F0459070
:1015A8004592000EF86E000137EF0BF0286E000E22
:1015B800236E000E246E000E256E000EACEC0AF0B1
:1015C800010E236E28C024F027C025F0010EACECD4
:1015D8000AF01200000E236E000E246E000E256E17
:1015E800000EACEC0AF0000E236E000E246E010E05
:1015F800256E000EACEC0AF012001B501D02F3CF52
:101608001FF0F4CF20F01B501E02F35020261C5070
:101618001D02F35020261FC01BF020C01CF0120032
:101628008C86000E226E010E216E93EC0AF08C96C9
:10163800000E226E010E216E93EC0AF01200010ECC
:10164800016E60BE05D00F0150BF02D0000E016EC2
:10165800015012001B6E1BC06FFF6E50E00B1B1871
:10166800D8B41200FAD76AEC0AF0100E99EC09F017
:0B167800FFD71B6E1BC044F0120008DF
:020000040020DA
:08000000FFFFFFFFFFFFFFFF00
:020000040030CA
:0E000000FF021F1EFF8285FF0FC00FE00F40A2
:00000001FF
